:200000000C9473050C949B050C949B050C949B050C949B050C949B050C949B050C949B0508
:200020000C949B050C949B050C949B050C949B050C949B050C949B050C949B050C949B05C0
:200040000C94F5150C949B050C949B050C949B050C949B050C949B050C949B050C949B0536
:200060000C943F160C949B0508000000BE922449123EABAAAA2ABECDCCCC4C3E00000080E0
:20008000BEABAAAAAA3E00000000BF000000803F0000000000084178D3BB4387D1133D19EA
:2000A0000E3CC3BD4282AD2B3E68EC8276BED98FE1A93E4C80EFFFBE01C4FF7F3F00000068
:2000C000000000000000003E5B4F5B3E3E6B4F6B3E1C3E7C3E1C183C7E3C181C577D571C45
:2000E0001C5E7F5E1C00183C1800FFE7C3E7FF0018241800FFE7DBE7FF30483A060E262982
:20010000792926407F050507407F05253F5A3CE73C5A7F3E1C1C08081C1C3E7F14227F223B
:20012000145F5F005F5F06097F017F006689956A606060606094A2FFA29408047E04081042
:20014000207E201008082A1C08081C2A08081E101010100C1E0C1E0C30383E3830060E3EF7
:200160000E06000000000000005F00000007000700147F147F14242A7F2A122313086462B7
:2001800036495620500008070300001C2241000041221C002A1C7F1C2A08083E0808008021
:2001A0007030000808080808000060600020100804023E5149453E00427F400072494949D0
:2001C000462141494D331814127F1027454545393C4A494931412111090736494949364659
:2001E0004949291E00001400000040340000000814224114141414140041221408020159E0
:2002000009063E415D594E7C1211127C7F494949363E414141227F4141413E7F4949494151
:200220007F090909013E414151737F0808087F00417F41002040413F017F081422417F40EA
:200240004040407F021C027F7F0408107F3E4141413E7F090909063E4151215E7F091929AE
:2002600046264949493203017F01033F4040403F1F2040201F3F4038403F63140814630353
:20028000047804036159494D43007F4141410204081020004141417F0402010204404040B9
:2002A0004040000307080020545478407F284444383844444428384444287F3854545418E6
:2002C00000087E090218A4A49C787F0804047800447D40002040403D007F102844000041F8
:2002E0007F40007C047804787C080404783844444438FC1824241818242418FC7C08040417
:2003000008485454542404043F44243C4040207C1C2040201C3C4030403C44281028444C52
:200320009090907C4464544C4400083641000000770000004136080002010204023C262300
:20034000263C1EA1A161123A4040207A3854545559215555794122545478422155547840FB
:2003600020545579400C1E5272123955555559395454545939555454580000457C4100024A
:20038000457D420001457C407D1211127DF0282528F07C545545002054547C547C0A097FC3
:2003A0004932494949323A4444443A324A4848303A4141217A3A42402078009DA0A07D3DF7
:2003C0004242423D3D4040403D3C24FF2424487E4943662B2FFC2F2BFF0929F620C0887EC4
:2003E000090320545479410000447D413048484A32384040227A007A0A0A727D0D19317D8C
:200400002629292F28262929292630484D4020380808080808080808382F10C8ACBA2F10C5
:200420002834FA00007B000008142A142222142A14085500550055AA55AA55AAFF55FF55A4
:20044000FF000000FF00101010FF00141414FF001010FF00FF1010F010F0141414FC0014BA
:2004600014F700FF0000FF00FF1414F404FC141417101F10101F101F1414141F00101010F1
:20048000F0000000001F101010101F10101010F010000000FF101010101010101010FF1010
:2004A000000000FF140000FF00FF00001F10170000FC04F414141710171414F404F4000077
:2004C000FF00F714141414141414F700F7141414171410101F101F141414F4141010F01073
:2004E000F000001F101F0000001F14000000FC140000F010F01010FF10FF141414FF1410FE
:2005000010101F00000000F010FFFFFFFFFFF0F0F0F0F0FFFFFF0000000000FFFF0F0F0FC9
:200520000F0F3844443844FC4A4A4A347E02020606027E027E0263554941633844443C041E
:20054000407E201E2006027E020299A5E7A5991C2A492A1C4C7201724C304A4D4D30304884
:20056000784830BC625A463D3E494949007E0101017E2A2A2A2A2A44445F444440514A4418
:200580004040444A51400000FF0103E080FF000008086B6B083612362436060F090F060061
:2005A0000018180000001010003040FF0101001F01011E00191D1712003C3C3C3C000000EC
:2005C0000000000103070F1F3F7F0080C0E0F0F8FCFEDB40A4A62EAF2000A1C8D300408DB7
:2005E000AED580A80000600000000000000000000000000000E00000000000000000000010
:2006000000000001E00000000000000000000000000001F000000000000000000000000008
:200620000003F00000000000000000000000000007F00000000000000000000000000007C9
:20064000F8000000000000000000000000000FF800000003C0007E000001E0007F0FF800F3
:20066000000003C000FE000001E000FFEFF800000003C000FE000001E000FFFFF80000005A
:2006800003C000F00000000F007FFE7FC0000003C000F00000000F003FFE7FF83FF1FBCF6C
:2006A000FCFEF3BC3DEFE01FFE7FFF7FFBFFDFFEFEFFBC3DEFE01FC6FFFF7FFBFFDFFEFE98
:2006C000FFBC3DEFE00FE3C7FE787BC3DE1EF0FFBC3DEF0007FF87FC787BC3DE1EF0F83CB4
:2006E0003DEF0001FFFFF0007BC3C01EF0F03C3DEF0001F37FE03FFBC3CFFEF0F03C3DEF16
:200700000003E33F807FFBC3DFFEF0F03C3DEF0007E73C00787BC3DE1EF0F03C3DEF0007A7
:20072000FFBE00787BC3DE1EF0F03C3DEF0007FFFE00787BC3DE1EF0F03C3DEF000FFFFEF8
:20074000007FFBFFDFFEF0F03FFDEFE00FFFFF007FFBFFDFFEF0F03FFDEFE00FF9FF003EC5
:2007600079F9CF9EF0F01F3DE7E01FF1FF0000000000000000000000001F80FF007FFFFF6D
:20078000FFFFFFFFFFFFFFE01C007F007FFFFFFFFEB46D888D18E000001F007FFFFFFFFEA4
:2007A00095AD7DB577E000000F007FFFFFFFFEA5AD9D8D19E0000006007FFFFFFFFEB5AD8E
:2007C000EDB57EE0000000000001800000000000000000000380000000000000000000070E
:2007E000C000000000000000000007C00000000000000000000FC0000000000000000000A3
:200800001FE00000000000000000001FE00000000000000000003FE00000000000000000BB
:20082000003FF00000000000000000007FF0000000000000001FF87FF00000000000000094
:200840003FFE7FF0000000000000003FFF7FF0000000000000001FFFFBE000000000000046
:20086000000FFFF9FFC00000000000000FFFF9FFF800000000000007FFF1FFFF00000000BF
:20088000000003FC73FFFF80000000000001FE3FFFFF80000000000000FF1E0FFF00000081
:2008A000000000007FFE1FFC000000000000003FFFFFF8000000000000000FDFFFE000009E
:2008C00000000000001F19FFC0000000000000003F3CFF00000000000000007E7CF80000B5
:2008E0000000000000007FFE7C0000000000000000FFFFFC0000000000000000FFFFFE0009
:2009000000000000000000FFFFFE0000000000000001FFEFFE0000000000000001FFCFFE21
:200920000000000000000003FF07FE0000000000000003FC07FE0000000000000003F003B6
:20094000FE00000000000000018000FE000000000000000000007E0000000000000000009C
:20096000003E000000000000000000000C000000000000078000FC000003C0000000078060
:2009800001FC000003C0000000078001FC000003C0000000078001E00000001E00000007C3
:2009A0008001E00000001E007FE3F79FF9FDE7787BDFC0FFF7FFBFFDFDFF787BDFC0FFF71C
:2009C000FFBFFDFDFF787BDFC0F0F787BC3DE1FF787BDE00F0F787BC3DE1F0787BDE0000AD
:2009E000F787803DE1E0787BDE007FF7879FFDE1E0787BDE00FFF787BFFDE1E0787BDE0034
:200A0000F0F787BC3DE1E0787BDE00F0F787BC3DE1E0787BDE00F0F787BC3DE1E0787BDEEB
:200A200000FFF7FFBFFDE1E07FFBDFC0FFF7FFBFFDE1E07FFBDFC07CF3F39F3DE1E03E7BE8
:200A4000CFC00000000000000000000000FFFFFFFFFFFFFFFFFFFFC0FFFFFFFFFD68DB1104
:200A60001A31C0FFFFFFFFFD2B5AFB6AEFC0FFFFFFFFFD4B5B3B1A33C0FFFFFFFFFD6B5B33
:200A8000DB6AFDC000000000240027002A0000000000250028002B0000000000230026001E
:200AA0002900040404040404040402020202020203030303030301020408102040800102CD
:200AC000040810200102040810202200FF2100000008000201000003040700000000000040
:200AE00000005E176E2211241FBECFEFD8E0DEBFCDBF12E0A0E0B1E0E2E7FEE402C005903B
:200B00000D92A031B107D9F723E0A0E1B2E001C01D92A73EB207E1F715E0C2E7D5E004C0CA
:200B20002197FE010E94F525C137D107C9F70E94B9170C942C270C9400000895833081F0EC
:200B400028F4813099F08230A9F008958730A9F08830C9F08430B1F4809180008F7D03C0DD
:200B6000809180008F7780938000089584B58F7784BD089584B58F7DFBCF8091B0008F77BB
:200B80008093B00008958091B0008F7DF9CFCF93DF93282F30E0F901E253F54F8491F901A3
:200BA000EA54F54FD491F901EE55F54FC491CC23A1F081110E949E05EC2FF0E0EE0FFF1F1B
:200BC000E856F54FA591B491EC91ED2381E090E009F480E0DF91CF91089580E090E0FACF57
:200BE0001F93CF93DF93282F30E0F901E253F54F8491F901EA54F54FD491F901EE55F54F1E
:200C0000C491CC23A9F0162F81110E949E05EC2FF0E0EE0FFF1FE257F54FA591B4918FB797
:200C2000F894EC91111108C0D095DE23DC938FBFDF91CF911F910895DE2BF8CFCF93DF93DD
:200C400090E0FC01EA54F54F24918E55954FFC0184918823D1F090E0880F991FFC01EC57AC
:200C6000F54FA591B491FC01E257F54FC591D491623071F49FB7F8943C91822F809583236E
:200C80008C93E8812E2B28839FBFDF91CF9108958FB7F894EC912E2B2C938FBFF6CFCF9321
:200CA000DF93EC0161E08AE00E941E06209731F460E08AE0DF91CF910C94F005CF3FD10595
:200CC00011F461E0F6CFE8EDFAE0E491E33029F140F4E130B1F0E230D9F0C038D1058CF7A6
:200CE000E7CFE73021F1E83051F1E430B1F780918000806280938000D0938B00C0938A002E
:200D000004C084B5806884BDC7BDDF91CF91089584B5806284BDC8BDF8CF8091800080689B
:200D200080938000D0938900C0938800EECF8091B00080688093B000C093B300E6CF809164
:200D4000B00080628093B000C093B400DECF3FB7F89480917D0390917E03A0917F03B091E1
:200D6000800326B5A89B05C02F3F19F00196A11DB11D3FBFBA2FA92F982F8827BC01CD01B3
:200D8000620F711D811D911D42E0660F771F881F991F4A95D1F708958F929F92AF92BF9254
:200DA000CF92DF92EF92FF924B015C010E94A7066B017C010E94A7066C197D098E099F09D5
:200DC000683E734081059105A8F321E0821A9108A108B10888EEC80E83E0D81EE11CF11CBC
:200DE00081149104A104B10429F7FF90EF90DF90CF90BF90AF909F908F9008952FB7F89488
:200E00006091790370917A0380917B0390917C032FBF089508950895AF92BF92CF92DF928F
:200E2000EF92FF920F931F93CF93DF936C017B018B01040F151FEB015E01AE18BF08C0170D
:200E4000D10759F06991D601ED91FC910190F081E02DC6010995892B79F7C501DF91CF9167
:200E60001F910F91FF90EF90DF90CF90BF90AF900895EF92FF920F931F93CF93DF93EC01F4
:200E8000EC80FD806E157F050CF070C057FF04C0240F351F50E040E08E819F81FA01E20F2A
:200EA000F31F8E179F071CF49C01241B350B121613060CF05BC0922F842F8695869586958C
:200EC0008E9DD0018F9DB00D11246A0F7B1FAF8DB8A1A60FB71F477049F188E0841B482F56
:200EE000682F70E0FB01E653FA4FE491281708F063C0621B71092FEF30E002C03595279551
:200F00006A95E2F7E2230130110539F0B0F10230110561F58C91E82702C08C91E82BEC93A8
:200F2000941720F12C813D81A20FB31FE92FE41BE83078F00230110521F58E2F9C91909503
:200F40009C932C813D81A20FB31F88508830B0F7E770EE2359F0F0E0EE53FA4FE49101308C
:200F60001105F9F010F10230110519F1DF91CF911F910F91FF90EF900895E0958C91E823B7
:200F8000CECF81E00115110509F480E081959E2F8C932C813D81A20FB31F98509830C0F773
:200FA000D7CF8C91E82BEC93E1CFE0958C91E823FACF8C91E827F7CF0130110509F4ADCF14
:200FC000E0F20230110509F4A5CFAE0DBF1DAECF0F931F93CF93DF9377FF04C0260F371F85
:200FE00070E060E0DC011496CD91DC91FB01E20FF31FCE17DF071CF49E01261B370B1216EB
:2010000013064CF5FA0157FD3796A3E0F595E795AA95E1F7EC9FD001ED9FB00DFC9FB00DBD
:2010200011246A0F7B1FDC015F96ED91FC91E60FF71F4770552781E090E001C0880F4A9545
:20104000EAF7482F0130110559F0A8F02E0F3F1F02301105E1F0DF91CF911F910F9108959F
:201060002E0F3F1FE217F307B1F38191DF011197842B8C93F7CF80952E0F3F1FE217F3076D
:2010800051F39191DF01119798239C93F7CFE217F30709F38191DF01119784278C93F7CF99
:2010A0000F931F93FA01DC0156964C9156974230E9F04330A1F1413061F514964D915C91C2
:2010C000DA01AE1BBF0BFD01E21BF30B77FD0BC0DC0116964D915C916417750724F4AB015B
:2010E000BF010E94E8071F910F91089514964D915C91DA01A61BB70BBD0161507109DC0119
:2011000016964D915C91DA01AE1BBF0BFD01E21BF30B77FDE8CFAF010E943907E4CF1696D5
:201120004D915C91DA01A61BB70BBD0161507109CDCF0F931F93FA01DC0156964C9156971F
:201140004230A9F0433091F1413019F514964D915C91DA01AE1BBF0BFD013197F7FD04C0AF
:20116000AB01BF010E9439071F910F91089514964D915C91DA01A61BB70BBD01DC0116961A
:201180004D915C91DA01AE1BBF0BFD013197621B730BF7FDE9CFDC0116964D915C91E4175A
:2011A000F50714F7AF010E94E807DECF16964D915C91DA01A61BB70BBD01621B730BCECF0F
:2011C000FC0177FD64C080859185681779070CF05EC057FD5CC082859385481759070CF0FC
:2011E00056C086898230B1F0833029F1813041F484819581841B950BAB01BC0161507109D6
:201200002130310509F108F443C02230310509F463C0089584819581DC01A61BB70BBD01D0
:201220006150710986819781DC01A41BB50BAD0141505109E5CF86819781861B970BBA019E
:20124000AC0141505109DCCFCA0157FD0796A3E095958795AA95E1F7A481B5818A9F90019A
:201260008B9F300D9A9F300D1124620F731F078CF0A1E02DE60FF71F4770552721E030E0D9
:2012800001C0220F4A95EAF78081822B80830895CA0157FD079633E0959587953A95E1F792
:2012A000A481B5818A9F90018B9F300D9A9F300D1124620F731F078CF0A1E02DE60FF71FC8
:2012C0004770552781E090E001C0880F4A95EAF7809590818923DACFCA0157FD079623E0B8
:2012E000959587952A95E1F7A481B5818A9F90018B9F300D9A9F300D1124620F731F078C54
:20130000F0A1E02DE60FF71F4770552721E030E001C0220F4A95EAF780818227B7CF089561
:201320008EBD00000DB407FEFDCF8EB508958CBD9DBD08950895FC016370668B8481958137
:2013400026813781613039F0633029F091878087338722870895318720879387828708958A
:201360002F923F924F925F926F927F928F929F92AF92BF92CF92DF92EF92FF920F931F93DB
:20138000CF93DF93CDB7DEB76A970FB6F894DEBF0FBECDBF9A8F898F7A8369834A01D22EA3
:2013A00018870F833701BC2CDC0159962D913C915A972115310509F015C118968D919C9160
:2013C0001997681779070CF0D7C11A968D919C91481759070CF0D0C14C2C512CB6E0CB9E8F
:2013E000600D711D11247C876B87161617060CF0C3C1EA2DF0E0FA87E98793E0EE0FFF1F99
:201400009A95E1F7F88BEF87CF01840F951F181619060CF0B1C1A98DBA8D58968C918111E0
:2014200004C0BFEABD1508F4D394A98DBA8DED91FC9111970284F385E02DCD010995B5E0CE
:20144000DB9EC0011124E981FA81FC83EB83312C212C9C012E533F4F388F2F8B4A2D50E0CD
:201460005E8B4D8BEF89F88DE20DF31D44919E828D82D12CC12C69817A81620D731D7A8BD8
:20148000698B842F90E09C8B8B8BE98DFA8DA081B18140FF82C0F1E0BF126FC0AF126DC068
:2014A0001C96ED91FC912F813885A4014C0D5D1D69897A89898D9A8D0995EB89FC89F59537
:2014C000E7954E2F5FEFC51AD50A6D817E818D899E89680F791F7E836D8398E0C916D104B1
:2014E00081F6AFEF2A1A3A0AEB81FC81E40DF51DFC83EB83F5E02F16310409F0B3CF2F81FC
:20150000388526153705B9F0A98DBA8DED91FC91B1E0BB1257C0AB1255C069817A816B5F70
:201520007F4F0088F189E02D830128E030E0A401898D9A8D0995A98DBA8DED91FC91119782
:201540000688F789E02DCD016A960FB6F894DEBF0FBECDBFDF91CF911F910F91FF90EF902D
:20156000DF90CF90BF90AF909F908F907F906F905F904F903F902F9009941E96ED91FC91FB
:20158000EF80F88409851A8592014D815E816B817C81898D9A8D099590CF2F813885261528
:2015A000370509F48ACF31E0B31207C0A31205C01C96ED91FC91930178CF1E96ED91FC912B
:2015C0007301E0CF6B857C85641975090684F785E02D73010F8518899201A401898D9A8DCB
:2015E0000995A9CFF90134969491329745915491D91AB7E0DB9E400D511D1124F9012591C5
:2016000034913C8B2B8BFA0125903490FA013296749031963491398B3296649031964490A6
:2016200041E04C1518F04A1508F07FC0662D062C000C770B7C836B83842D042C000C990BB9
:201640009E838D83A98DBA8DED91FC9111970284F385E02DCD010995512CD12CC12CEA2D34
:20166000F0E0FA87E9872B2D30E03C872B87A401440D511D47FC5A95588F4F8B69817A8190
:20168000660D711D67FC7A957E876D877989C71608F051CF2C2D30E04D815E81420F531F0E
:2016A000A985BA854A9FC0014B9F900D5A9F900D1124FC01E80DF91DF88BEF87852D612C81
:2016C0004F89588D420F531F5E8B4D8B671408F050C044244394480E877041F4C10101962C
:2016E000EB89FC89E20DF31DD4901C01D7FE19C0A98DBA8DED91FC91662D70E0B1E0BB12FA
:2017000019C0AB1217C02D853E85620F731F0484F585E02D2F8138854D895E89898D9A8D6E
:201720000995DD0C6394842DD1CF1E821D821C821B8288CF4B815C81640F751FAB85BC85E8
:201740006A9FC0016B9F900D7A9F900D112469817A81680F791F0684F785E02DEF80F8843B
:2017600009851A859D014F855889898D9A8D0995D8CF570CC3948ACF6A960FB6F894DEBF66
:201780000FBECDBFDF91CF911F910F91FF90EF90DF90CF90BF90AF909F908F907F906F900A
:2017A0005F904F903F902F9008958F929F92AF92CF92EF92FF920F931F93CF93DF93EC0115
:2017C000262F898D9A8D009709F051C06A30D1F41D861C868D8948E0849F900111248E85F8
:2017E0009F85820F931F9F878E8781E090E0DF91CF911F910F91FF90EF90CF90AF909F907B
:201800008F9008956D3089F3CC88AD888F898823C1F08C859D8536E0C39E800D911D1124DC
:20182000488559854817590764F44E855F851D861C8638E0A39EC0011124840F951F9F872E
:201840008E87EA88FB88088919894E855F856C857D85CE010E94B0092C898C859D8546E069
:20186000249F800D911D11249D878C87BECF6A3069F41D861C86FC013896E4912D898E852C
:201880009F85E29F800D911D1124ADCF6D3009F4ACCFFC0134963491631708F4A6CF329663
:2018A000E491E61708F4A1CFFC01329685909490462F431B342F47E0349F800C911C1124AE
:2018C000F401329634913196E4913323A9F1EE2399F1CC88F4013596E491AD884F894423C2
:2018E00001F10E2E000CFF0BE30FF11DCE9EA001CF9E500D11246C857D85460F571F6885ED
:201900007985641775076CF44E855F851D861C86FC013896E491AE9E400D511D11245F8714
:201920004E87EA88FB88088919894E855F856C857D85CE010E94B009F4013496E4912C89ED
:201940008C859D85E29F800D911D11248DCF6F927F928F929F92AF92BF92CF92DF92EF92BE
:20196000FF920F931F93CF93DF93EC016B015A0139014801E881F9810284F385E02D0995EB
:20198000E881F9810288F389E02D87019301A501B601CE010995A501480D591D415051090F
:2019A000E881F9810288F389E02D9301B601CE010995E881F9810088F189E02D9401A5014C
:2019C000B601CE010995C60CD71CB60161507109E881F9810088F189E02D9401A501CE0140
:2019E0000995E881F9810688F789E02DCE01DF91CF911F910F91FF90EF90DF90CF90BF9031
:201A0000AF909F908F907F906F9009946F927F928F929F92AF92BF92CF92DF92EF92FF92B4
:201A20000F931F93CF93DF935C01EB016A01490138018701DC01ED91FC916217730719F5D6
:201A4000641675062CF0962D872D3A01C92ED82E9601261937092F5F3F4F048CF58DE02D75
:201A6000A301BE01C5010995DF91CF911F910F91FF90EF90DF90CF90BF90AF909F908F90C7
:201A80007F906F9008954615570591F42617370724F0892D4B01C22FD82F9E0128193909B4
:201AA0002F5F3F4F068CF78DE02DA601B401DACF0284F385E02D0995D501ED91FC910488CC
:201AC000F589E02D83019401A601BE01C5010995D501ED91FC910688F789E02DC501DF9166
:201AE000CF911F910F91FF90EF90DF90CF90BF90AF909F908F907F906F900994EF92FF92C1
:201B00000F931F93DC011A960D911C911B9718962D913C911997ED91FC9100A0F1A1E02DB4
:201B20007B0150E040E070E060E009951F910F91FF90EF9008954F925F926F927F928F92AB
:201B40009F92AF92BF92CF92DF92EF92FF920F931F93CF93DF936C012B015A01390148013F
:201B6000DC01ED91FC910284F385E02D0995E201640C751CD601ED91FC91C615D7055CF407
:201B80000088F189E02D87019401A501BE01C60109952196EFCF0688F789E02DC601DF9188
:201BA000CF911F910F91FF90EF90DF90CF90BF90AF909F908F907F906F905F904F90099444
:201BC0008F929F92AF92BF92CF92DF92EF92FF920F931F93CF93DF93EC015B014A01690117
:201BE000E881F9810284F385E02D099595012C0D3D1D21503109E881F9810488F589E02D8B
:201C000078018401A401B501CE010995E881F9810688F789E02DCE01DF91CF911F910F9111
:201C2000FF90EF90DF90CF90BF90AF909F908F9009948F929F92AF92BF92CF92DF92EF9218
:201C4000FF920F931F93CF93DF93EC015B014A0169017801E881F9810284F385E02D0995C8
:201C6000C80CD91C860101501109E881F9810488F589E02D9501A401B501CE010995E881E8
:201C8000F9810688F789E02DCE01DF91CF911F910F91FF90EF90DF90CF90BF90AF909F9027
:201CA0008F900994EF92FF920F931F93DC01ED91FC9100A0F1A1E02D09951F910F91FF905E
:201CC000EF9008950F931F93DC01ED91FC91068CF78DE02D09951F910F9108950F931F93AA
:201CE000DC01ED91FC91048CF58DE02D09951F910F910895DC01ED91FC910084F185E02D63
:201D000009943F924F925F926F927F928F929F92AF92BF92CF92DF92EF92FF920F931F9355
:201D2000CF93DF935C017B014A016901390187E0680E711C93E0759467949A95E1F72B01F3
:201D4000400E511E10E000E0312CD0E0C0E0CE0187709927330C892B59F4FE0183E0F59597
:201D6000E7958A95E1F7E00FF11FE80DF91D349037FE0AC021E030E0A701B5016C0F7D1F9D
:201D800083EA93E00E947A0E2196CC16DD06F9F68FEFE81AF80A060D171DE414F504A9F675
:201DA000DF91CF911F910F91FF90EF90DF90CF90BF90AF909F908F907F906F905F904F906F
:201DC0003F9008952F923F924F925F926F927F928F929F92AF92BF92CF92DF92EF92FF9259
:201DE0000F931F93CF93DF9300D000D000D0CDB7DEB73C016A013E832D83FC82EB825801D5
:201E0000A41AB50AB7FE03C0B194A194B1088D809E80861A970A97FE03C091948194910803
:201E20008A149B045CF0902F812F0D811E819D838E839C2D8D2D6B01692F782F0C151D05DB
:201E40005CF09D818E817E836D83692F782F902F812F8601C92ED82E1601201A310A2B012E
:201E60002D813E81421A530A57FE03C0519441945108710137FE03C03FEFE31AF30AF594F6
:201E8000E7948D819E81861797075CF5A1E0B0E0BA83A983C016D1064CF1D301ED91FC91CB
:201EA0000484F585E02D2B813C81A8016D817E818A149B041CF04D815E81B801C301099503
:201EC000E418F508F7FE0AC02D813E8189819A81280F391F3E832D83E20CF31C0F5F1F4FDF
:201EE000D9CF2FEF3FEF3A832983D4CF26960FB6F894DEBF0FBECDBFDF91CF911F910F91BF
:201F0000FF90EF90DF90CF90BF90AF909F908F907F906F905F904F903F902F900895089565
:201F200020917602260F3327331F21323105ECF420919A02FC0190E080E0243069F082E005
:201F40000895A09176022191AC014A5A5D4FA40FB52FB11D2C930196861798F38091760220
:201F6000680F6093760280E0089581E0089510929A0281E080939C0210929B0261E082E151
:201F80000E94F00561E083E10E94F005E9EBF0E080818E7F808380818D7F808388E480932A
:201FA000B80085E48093BC000895CF93DF9391E0909355028823B9F0C091B800D091BA005D
:201FC0008091BC008A7B8093BC0060E082E10E94F00560E083E10E94F0050E94B70FD09320
:201FE000BA00C093B800DF91CF910895E091C6028091C502E81730F4F0E0E05DFD4F808121
:2020000090E008958FEF9FEF08959091C6028091C5022FEF3FEF981748F4E92FF0E0E05DED
:20202000FD4F208130E09F5F9093C602C90108958091C5029091C602891B990B0895CF924C
:20204000DF92EF92FF920F931F93CF93DF937C01CB018A0120918403222389F0EB016B01B3
:20206000C40ED51ECC15DD0569F06991D701ED91FC910190F081E02DC7010995F3CF642FD8
:202080000E94900FC801DF91CF911F910F91FF90EF90DF90CF900895CF93DF931F92CDB794
:2020A000DEB76983209184032223F9F020918103203258F021E030E0FC013383228390E091
:2020C00080E00F90DF91CF91089580918203E82FF0E0E05FFD4F998190838F5F80938203D9
:2020E0008093810381E090E0ECCF61E0CE0101960E94900FF7CFCF92DF92EF92FF920F9389
:202100001F93CF93DF93D091810381E0D13208F09CC0C09183030E94A7066B017C0180917C
:202120009A0281116CC082E080939A0281E080939C028FEF809399021092BE02D093BD0272
:20214000A0E1B2E0EDE9F2E080E0D8138DC01092BF028091BF02CC0FC82BC093BF02809104
:202160009B02813009F084C010929B020E94A7066B017C018091BF028093BB008091510259
:2021800090915202A0915302B0915402892B8A2B8B2BA1F00E94A7060091510210915202D5
:2021A00020915302309154026C197D098E099F09061717072807390708F442C08091BC0043
:2021C00083FDD8CF85EC8093BC000E94A7066B017C0180919A02823009F44CC0809199024C
:2021E0008F3F09F469C080919902803209F466C080919902803309F463C084E026C0809190
:20220000510290915202A0915302B0915402892B8A2B8B2B09F483CF0E94A7060091510238
:202220001091520220915302309154026C197D098E099F09061717072807390708F06FCF62
:20224000809150020E94D50F85E0109282031092810310928403DF91CF911F910F91FF900B
:20226000EF90DF90CF9008959D9191938F5F6DCF85EEA9CF8091510290915202A0915302AE
:20228000B0915402892B8A2B8B2B09F4A2CF0E94A70600915102109152022091530230912B
:2022A00054026C197D098E099F09061717072807390708F08ECFC4CF80E0C7CF82E0C5CF00
:2022C00083E0C3CFEF92FF920F931F93CF93DF937C01C62F8091C0039091C103009709F410
:2022E00059C02091C40331E030938403209383031092820310928103DC01ED91FC910190F3
:20230000F081E02D60E009958701EE24E394F12CD1E0C1508091C0039091C103CF3F91F128
:20232000B0E2EB16F104D8F00E947B108091C0039091C1032091C403D093840320938303CC
:202340001092820310928103DC01ED91FC910190F081E02D60E00995EE24E394F12C8091A4
:20236000C0039091C103F8016491DC01ED91FC910190F081E02D0995BFEFEB1AFB0A0F5F0C
:202380001F4FC7CFDF91CF911F910F91FF90EF900C947B10E091D003F091D1039081809125
:2023A000D6038095892380838701C15008F438C0F80184912091BE033091BF03232B29F089
:2023C0000E9490090F5F1F4FF0CF28E030E040E8E091CC03F091CD039091D403582F542360
:2023E000D9F05081952B9083E091CE03F091CF0390815091D503952B9083E091CE03F0917B
:20240000CF0350819091D503909595239083469521503109E9F6D6CF508190959523E3CFC6
:20242000DF91CF911F910F91FF90EF9008951F93CF93DF93EC018D8D9E8D009721F1162F2B
:2024400029A131E030938403209383031092820310928103DC01ED91FC910190F081E02DDA
:2024600060E009958D8D9E8DDC01ED91FC910190F081E02D612F09958D8D9E8DDF91CF91FF
:202480001F910C947B10ADA5BEA59C918BA9809589238C938B8D9C8D892B31F0862FDF9130
:2024A000CF911F910C94900928E030E080E8A9A5BAA599A9462F4823C1F04C91942B9C9308
:2024C000ABA5BCA59C914AA9942B9C93ABA5BCA54C919AA9909594239C938695215031099B
:2024E00031F7DF91CF911F9108954C9190959423E6CFDF92EF92FF920F931F93CF93DF937E
:202500008091C0039091C103892B09F4A5C02091D8033091D9034091DA035091DB0360E016
:2025200074E284EF90E00E94C522205131094109510956954795379527952093B80064E08C
:202540008AEC9AE00E9462118091A7039091A8038034910509F097C060E283EA93E00E9491
:2025600017126091A703615E83EA93E00E9417122091A9033091AA03C901079697FD0796CA
:2025800033E0959587953A95E1F72091A7033091A803829F8001839F100D929F100D112410
:2025A000C091C203D091C3038091C0039091C1030C0F1D1F009709F498C02091C40331E059
:2025C00030938403209383031092820310928103DC01ED91FC910190F081E02D60E4099552
:2025E000EE24E394F12CDD24D3948091C0039091C1030C171D0709F44FC0B0E2EB16F10439
:20260000D8F00E947B108091C0039091C1032091C403D092840320938303109282031092A9
:202620008103DC01ED91FC910190F081E02D60E40995EE24E394F12C8091C0039091C103DE
:202640006991DC01ED91FC910190F081E02D0995BFEFEB1AFB0AC9CF8091BE039091BF03E6
:20266000892B31F08091E1039091E2030E949709E091D203F091D30390818091D70380959A
:20268000892380835CCF60E083EA93E00E9417126091A703615068CF0E947B108091C003F1
:2026A0009091C103892B09F461C02091DC033091DD034091DE035091DF0360E074E284EFB4
:2026C00090E00E94C522205131094109510956954795379527952093B800DF91CF911F9178
:2026E0000F91FF90EF90DF900895E091D003F091D10380819091D603892B80830C171D078E
:2027000069F289912091BE033091BF03232B19F00E949009F3CF28E030E040E8E091CC037B
:20272000F091CD039091D403582F5423D9F05081952B9083E091CE03F091CF03908150915E
:20274000D503952B9083E091CE03F091CF0350819091D503909595239083469521503109F9
:20276000E9F6CCCF508190959523E3CFE091D203F091D30380819091D703892B8083ADCFB3
:202780001F93CF93DF93EC01162F8D8D9E8D892BB1F12DA93EA94FA958AD60E074E284EF23
:2027A00090E00E94C522205131094109510956954795379527952093B80066EA111167EA54
:2027C000CE010E9417128D8D9E8D892B41F129AD3AAD4BAD5CAD60E074E284EF90E00E945B
:2027E000C522205131094109510956954795379527952093B800DF91CF911F9108958B8DB4
:202800009C8D892B21F08EAD9FAD0E949709EFA5F8A990818CA9809589238083CECFEFA591
:20282000F8A980819CA9892B8083E5CF90E080E00895FF920F931F93CF93DF9305E813E040
:20284000D0E0C0E0F801F1908F01CE010E947D22F81621F06F2DCE010E9485222196C23191
:20286000D10581F785E893E0DF91CF911F910F91FF900895FC0101900020E9F73197AF01D8
:20288000481B590BBC0183EA93E00C940C078F929F92AF92BF920F931F93CF93DF93CDB791
:2028A000DEB7A1970FB6F894DEBF0FBECDBF19A2423008F44AE08E010F5D1F4F842E912CD9
:2028C000B12CA12CA50194010E94C522E62FB901CA01EA30F4F4E05DD801EE938D01232B7B
:2028E000242B252B79F790E080E0109719F0CD010E943A14A1960FB6F894DEBF0FBECDBF0D
:20290000DF91CF911F910F91BF90AF909F908F900895E95CE1CFCF92DF92EF92FF92CF93E3
:20292000DF936C01990FEE08FF08F7FE19C06DE283EA93E00E94D50BEC0166277727CB01B0
:202940006C197D098E099F094AE00E9447148C0F9D1FDF91CF91FF90EF90DF90CF90089566
:202960004AE0C701B601DF91CF91FF90EF90DF90CF900C944714009711F00C943A1490E011
:2029800080E008954F925F926F927F928F929F92AF92BF92CF92DF92EF92FF92CF93DF93BA
:2029A0006B017C01942EAC019B010E948425882391F087E591E0DF91CF91FF90EF90DF9082
:2029C000CF90BF90AF909F908F907F906F905F904F900C943A1426013701E89477F82FEF8A
:2029E0003FEF4FE75FE7C301B2010E94842581110DC02FEF3FEF4FE75FE7C301B2010E942B
:202A0000632318161CF48BE591E0D5CF2FEF3FEF4FE75FE4C701B6010E94C22418161CF463
:202A20008FE591E0C8CF2FEF3FEF4FE75FECC701B6010E94632387FDF3CF20E030E0A901A6
:202A4000C701B6010E946323B12CA12C87FF0AC06DE283EA93E00E94D50B5C01F7FAF09452
:202A6000F7F8F094C92D60E070E080E09FE3D0E020E030E040E251E40E94682321E02D0FFA
:202A8000D1E02915A8F3A70196010E94F7222B013C010E94E1236B017C010E9410249B0148
:202AA000AC01C301B2010E94F6222B013C014AE0C701B6010E9447147C016EE283EA93E07C
:202AC0000E94D50BE80EF91EEA0CFB1CC15018F120E030E040E251E4C301B2010E94172584
:202AE0002B013C010E94E1234B01B12CA12C4AE0C501B4010E944714E80EF91EC501B401A7
:202B00000E9410249B01AC01C301B2010E94F6222B013C01DBCFC701DF91CF91FF90EF90AC
:202B2000DF90CF90BF90AF909F908F907F906F905F904F9008952091A9033091AA03C901DD
:202B4000079697FD079623E0959587952A95E1F72091A7033091A803829FA001839F500DBF
:202B6000929F500D112470E060E08091C2039091C3030C9425270E94202785ED8093BC002F
:202B80008091510290915202A0915302B09154020796A11DB11D23E0B695A7959795879544
:202BA0002A95D1F72091BC0024FD03C010929A0208954091510250915202609153027091C2
:202BC0005402452B462B472B69F30097A105B10541F02AE22A95F1F700C00197A109B1095D
:202BE000E1CF809150020C94D50F1F920F920FB60F9211242F933F938F939F93AF93BF93D5
:202C00008091790390917A03A0917B03B0917C033091780323E0230F2D3758F50196A11DA3
:202C2000B11D209378038093790390937A03A0937B03B0937C0380917D0390917E03A09192
:202C40007F03B09180030196A11DB11D80937D0390937E03A0937F03B0938003BF91AF91C9
:202C60009F918F913F912F910F900FBE0F901F90189526E8230F0296A11DB11DD2CF1F9257
:202C80000F920FB60F9211242F933F934F935F936F937F938F939F93AF93BF93EF93FF9380
:202CA0008091B900887F803609F44AC0F0F5883209F4A7C018F5803109F49BC0B8F4882316
:202CC00009F4F9C0883009F494C0FF91EF91BF91AF919F918F917F916F915F914F913F9195
:202CE0002F910F900FBE0F901F901895883109F488C0803251F78093990214C0803409F482
:202D00009DC040F48033B9F38833F9F68093990285ECB0C0803509F485C0883509F496C083
:202D2000883499F60E94BD15D0CF883909F48CC038F5883729F050F4883611F0803729F64D
:202D400083E080939A021092980257C0883809F47BC0803919F0803809F0B7CF8091980272
:202D6000803208F071C0E091980281E08E0F809398028091BB00F0E0E858FD4F80833DC09A
:202D8000803B39F0E0F4803A09F479C0883A09F09CCF84E080939A0210927702109276021D
:202DA000E091C302F091C40209958091760281110FC081E0809376021092560209C0803CA3
:202DC00009F4A6CF883C09F4A3CF883B09F07DCFE091770281E08E0F80937702F0E0EA5ABE
:202DE000FD4F80818093BB00909177028091760229C08091BF028093BB0085EC8093BC00CC
:202E000064CF9091BE028091BD02981758F5E091BE0281E08E0F8093BE02F0E0E356FD4F7B
:202E20008081E9CFE091BE0281E08E0F8093BE028091BB00F0E0E356FD4F80839091BE02D2
:202E40008091BD029817C8F285E8D8CFE091BE0281E08E0F8093BE028091BB00F0E0E3564E
:202E6000FD4F808380919C0281115CCF81E080939B0284EA8093BC0010929A0226CF85ECA5
:202E80008093BC0010929A0280919802803230F4E0919802F0E0E858FD4F10826091980220
:202EA00070E0E091C102F091C20288E792E00995109298020ACF1092990234CFA7E9B3E052
:202EC00013961C921E92129748EE53E060E070E014964D935D936D937C9317978DE191E033
:202EE00011969C938E93E3EAF3E01382128220E830E03583248380E490E0978386833187EC
:202F0000208793878287168A158614861786168681E0858B848B2FEF3FEF338B228B318BE6
:202F2000208B878B108E128E118E8FE291E091838083148E138EB68FA58F10A2178E8FEF6D
:202F400084A385A386A387A380A780E89AE1A6E0B0E085AB96ABA7ABB0AF80EA96E8A1E024
:202F6000B0E081AF92AFA3AFB4AF80E586AF17AE0895CF93DF9300D000D0CDB7DEB7789406
:202F800084B5826084BD84B5816084BD85B5826085BD85B5816085BD80916E00816080934C
:202FA0006E00109281008091810082608093810080918100816080938100809180008160FF
:202FC000809380008091B10084608093B1008091B00081608093B00080917A00846080930D
:202FE0007A0080917A00826080937A0080917A00816080937A0080917A00806880937A0064
:203000001092C10061E08AE00E941E0662E082E00E941E0662E083E00E941E0662E084E061
:203020000E941E061092C6021092C50210928203109281030E94B70F8AE097E09093C40278
:203040008093C3028BE097E09093C2028093C1028091C2039091C303892B11F52091A90325
:203060003091AA03C901079697FD0796B3E095958795BA95E1F72091A7033091A8036C0116
:20308000C29EC001C39E900DD29E900D11240E94FB259093C3038093C203892B09F4C1C317
:2030A0000E949B152091A9033091AA038091A7039091A803B901213231050CF485C260542E
:2030C000710977FF02C06F5F7F4F759567958255910997FD019600E410E022E530E044ECE5
:2030E00057E0959587950E94810E82E08093C5038091C0039091C103892B09F478C28CE3D2
:203100008093C4031092C6021092C50210928203109281030E94B70F8AE097E09093C40283
:203120008093C3028BE097E09093C2028093C1028091CB0387FD1EC061E00E941E0661E08F
:203140008091CB030E94F00561E070E080E090E00E94CC0660E08091CB030E94F0056AE024
:2031600070E080E090E00E94CC0661E08091CB030E94F0058091C0039091C103892B09F49A
:20318000F7C22091D8033091D9034091DA035091DB0360E074E284EF90E00E94C52220516D
:2031A00031094109510956954795379527952093B80064E080EE95E00E9462116091A9039E
:2031C000615083EA93E00E94171264E08CED95E00E9462118091C50360E1813009F064E143
:2031E00083EA93E00E94171264E088ED95E00E9462118FE88093E0038091A7039091A803ED
:203200008038910509F0CDC28091A9039091AA038034910509F0EFC28091C503813009F0D6
:20322000BEC28FE98093E00322E129836AED83EA93E00E941712698183EA93E00E9417125A
:2032400061E883EA93E00E9417126091E00383EA93E00E94171269ED83EA93E00E941712FA
:203260008091C50362E2813009F061EF83EA93E00E94171266E082ED95E00E94621180913C
:20328000C0039091C103892B09F4C1C22091DC033091DD034091DE035091DF0360E074E216
:2032A00084EF90E00E94C522205131094109510956954795379527952093B80081E090E0C8
:2032C0009093B6038093B5039093B4038093B3030E949B1582E08093B7038093B8038EE1E6
:2032E00090E09093B0038093AF0385E090E09093B2038093B1038CE691E00E94BB1481E09A
:203300008093B7038093B80384E190E09093B0038093AF0389E190E09093B2038093B10329
:2033200083E791E00E94BB141092B0031092AF038AE290E09093B2038093B10383E891E041
:203340000E94BB141092B0031092AF0386E390E09093B2038093B10381E991E00E94BB148F
:203360000E94791264EC79E080E090E00E94CC06E4EEF2E08FE3819323E0E436F207D9F723
:2033800005E813E01A82198289819A810E947D22F80181938F0129813A812F5F3F4F3A83D5
:2033A00029832231310581F7C0908503D0908603E0908703F0908803A7019601C701B601DC
:2033C0000E948425811114C020E030E0A901C701B6010E94632318165CF420E030E04AE71C
:2033E00054E4C701B6010E94C22418160CF042C08091090190910A01A0910B01B0910C0190
:203400008093850390938603A0938703B09388038091050190910601A0910701B091080118
:203420008093890390938A03A0938B03B0938C038091010190910201A0910301B0910401F8
:2034400080938D0390938E03A0938F03B0939003109291031092920310929303109294039C
:20346000809111019091120190939603809395030E9419148091850390918603A0918703C1
:20348000B09188038093090190930A01A0930B01B0930C018091890390918A03A0918B037C
:2034A000B0918C038093050190930601A0930701B093080180918D0390918E03A0918F035C
:2034C000B09190038093010190930201A0930301B09304018091910390919203A09193033C
:2034E000B09194038093DE029093DF02A093E002B093E10280919503909196039093120129
:203500008093110182E00E94C7059A83898383E00E94C705C980DA80CC0CDD1CC82AD92A53
:20352000D092C802C092C7028CE2482E55245394612C712C1CE1212E312C0E94FE060091F6
:20354000C9021091CA022091CB023091CC02601B710B820B930B623071058105910508F4E4
:20356000B0C182E00E94C7057C0183E00E94C705EE0CFF1CE82AF92A8091C7029091C802AD
:20358000880F991F880F991F8E299F298D309105C1F084309105A9F08230910591F08E30A0
:2035A000910509F43FC19C01275031092230310508F438C18130910509F434C10B9709F0D9
:2035C0007CC101E010E030C16052710977FF02C06F5F7F4F759567958357910997FD019647
:2035E00000E210E023E730E044EE55E07ACD61E08091C9030E941E0661E08091CA030E948C
:203600001E068091C903082E000C990BFC01EE55F54FE491F0E0EE0FFF1FE257F54F2591AC
:2036200034913093D1032093D003FC01EA54F54FE491E093D6038091CA03082E000C990BA4
:20364000FC01EE55F54FE491F0E0EE0FFF1FE257F54FA591B491B093D303A093D203FC0170
:20366000EA54F54FE491E093D7038C91E82BEC938091BE039091BF03892B09F436C0DFB666
:20368000D982F8948091C002811127C0ECEAFAE08491E0ECFAE09491E82FF0E0EE0FFF1F65
:2036A000EC57F54FA591B491EC91E92321F461E08AE00E94F00561E08AE00E941E068CB576
:2036C00080618CBD8CB580648CBD61E08DE00E941E0661E08BE00E941E068091C0028F5FAB
:2036E0008093C002E980EFBE23CD61E08091C7030E941E0661E08091C8030E941E06809119
:20370000C703082E000C990BFC01EE55F54FE491F0E0EE0FFF1FE257F54F2591349130935A
:20372000CD032093CC03FC01EA54F54FE491E093D4038091C803082E000C990BFC01EE55F7
:20374000F54FE491F0E0EE0FFF1FE257F54FA591B491B093CF03A093CE03FC01EA54F54F35
:20376000E491E093D5038C91E095E823EC93E0CC8091BE039091BF03892B31F08091E10342
:203780009091E2030E949709E091D203F091D30390818091D7038095892380830ACD8FEC32
:2037A00041CD8036910591F48091A9039091AA03409721F58091C503813031F480E180938F
:2037C000E00332E0398332CD8FEAF9CF80349105C1F48091A9039091AA038097A9F48091A9
:2037E000C503813031F480E18093E00342E149831DCD8FECF9CF52E0598318CD82E0898357
:2038000015CD92E0998312CDE2E0E9830FCDE091D203F091D30380819091D703892B8083FF
:203820004DCDFFCF0FEF1FEF0E94FE066093C9027093CA028093CB029093CC028091690313
:2038400090916A03009709F022C285E0809FB001819F700D1124072E000C880B990B0E9445
:20386000122420910D0130910E0140910F01509110010E94F7224B015C0120E030E040EA12
:2038800051E40E94632387FDFBC120E030E046E953E4C501B4010E94C224181634F4812C0F
:2038A000912CF6E9AF2EF3E4BF2E80920D0190920E01A0920F01B0921001F092C802E09227
:2038C000C70284E00E94C7058C01FF24F394892B09F4F12C0E94FE0620910001012B09F0CB
:2038E000D1C5222351F06093CE027093CF028093D0029093D1021092CD022091CD02211117
:2039000025C00091CE021091CF022091D0023091D102601B710B820B930B613B74408105E0
:203920009105A0F081E08093CD028091690390916A03892B09F07CC280916603811106C056
:2039400041E050E050936A0340936903F09200010E94FE060091DA021091DB022091DC02E4
:203960003091DD026B017C01C01AD10AE20AF30A97018601043611052105310508F4ABC0EE
:203980006093DA027093DB028093DC029093DD022AE030E090E080E060E460937C00409117
:2039A0007A00406440937A0040917A0046FDFCCF4091780050917900840F951F21503109AE
:2039C00061F76AE070E00E94BE25161617060CF0B3C2072E000C880B990B0E9412246B01FA
:2039E0007C0120E030EC4FE754E40E94C22487FFA3C22AE038E240EA5BE3C701B6010E94A0
:203A000017256B017C01AC019B0160E070E080EA90E40E94F6229B01AC01C701B6010E94A6
:203A2000682320E038EE4DEF56E40E94172520E030E543EC57E40E9468230E94CF2420E040
:203A400030EE46E755E40E9468232FE03FEC4BE55BE30E94F7229B01AC0160E070E080E811
:203A60009FE30E94682323E333E948E853E40E94F6222091DE023091DF024091E00250918D
:203A8000E1020E94F7226B017C01C0927003D0927103E0927203F092730320E030E0A9016B
:203AA000C701B6010E94632387FF4DC281E080936B0310926603109268031092670390E054
:203AC00080E00E944F061092D6021092D7021092D8021092D9020E94FE0600917403109152
:203AE00075032091760330917703601B710B820B930B653F71408105910508F454C00E94A4
:203B0000FE0660937403709375038093760390937703C0907003D0907103E0907203F09097
:203B2000730320E030E0A901C701B6010E94632320E030E0A90187FD16C020E030E046E95B
:203B400053E4C701B6010E94C2242CE231E040E050E0181644F0C701B6010E94DA239B019C
:203B6000770F440B550B0091640310916503C8018C519D4F7C01A5EEBFEF0E94C022A30197
:203B800092010E949322215C3F4F4F4F5F4FF70120830F5F1F4F003811050CF086C2109338
:203BA0006503009364030E94FE0600916C0310916D0320916E0330916F03601B710B820B13
:203BC000930B683771058105910508F451C00E94FE0660936C0370936D0380936E039093E7
:203BE0006F030E949B158091690390916A0320916B03222309F45EC2892B09F05FC382E044
:203C00008093B7038093B80388E090E09093B0038093AF0335E0C32ED12CD092B203C0922A
:203C2000B1038DE991E00E94BB1481E08093B7038093B8031092B0031092AF038EE190E0F4
:203C40009093B2038093B10384EA91E00E94BB141092B0031092AF0380E390E09093B20321
:203C60008093B10388EB91E00E94BB140E94791280E090E0892B09F460CC0E9400005ACC86
:203C8000812C912CE0EAAE2EE1E4BE2E0ECE81309105A1F46091E2027091E302060F171FA5
:203CA0000430110514F003E010E017FF02C010E000E01093E3020093E202FFCD8230910528
:203CC00089F5B801110F880B990B0E94122420E030E040E05FE30E941725209109013091B2
:203CE0000A0140910B0150910C010E94F7224B015C0120E030E0A9010E94632387FD09C05B
:203D00008092090190920A01A0920B01B0920C01D4CD1092090110920A0110920B01109283
:203D20000C01CBCD8330910589F5B801110F880B990B0E9412242AE037ED43E25CE30E94FB
:203D40001725209105013091060140910701509108010E94F7224B015C0120E030E0A901C7
:203D60000E94632387FD09C08092050190920601A0920701B0920801A0CD10920501109251
:203D80000601109207011092080197CD8430910559F5B801110F880B990B0E941224209132
:203DA00001013091020140910301509104010E94F7224B015C0120E030E0A9010E9463233C
:203DC00087FD09C08092010190920201A0920301B092040172CD10920101109202011092B6
:203DE00003011092040169CD059709F066CDB801110F880B990B0E94122420E030E040E002
:203E00005FE30E9417259B01AC016091DE027091DF028091E0029091E1020E94F7226093E1
:203E2000DE027093DF028093E0029093E10245CD10926A031092690389CD019761F580913F
:203E4000E2029091E302009739F482E090E090936A03809369037ACD8130910539F4E3E055
:203E6000F0E0F0936A03E093690370CD8230910541F474E0C72ED12CD0926A03C092690316
:203E800065CD039709F062CD25E030E030936A03209369035BCD41E050E050936A0340932E
:203EA00069038091090190910A01A0910B01B0910C018093850390938603A0938703B0937D
:203EC00088038091050190910601A0910701B09108018093890390938A03A0938B03B09342
:203EE0008C038091010190910201A0910301B091040180938D0390938E03A0938F03B09322
:203F000090038091DE029091DF02A091E002B091E1028093910390939203A0939303B09379
:203F20009403809111019091120190939603809395030E9419140ACDC12CD12C68E4E62E3C
:203F400062ECF62EA2CD10926B0380916603811109C0109268031092670390E080E00E9410
:203F60004F06B9CDA701960160910D0170910E0180910F01909110010E94F6224B015C0162
:203F80002091D6023091D7024091D8025091D9020E94F7226B017C0120E030E046E953EC75
:203FA0000E94632387FD7AC020E030E046E953E4C701B6010E94C224181634F4C12CD12C5E
:203FC00056E9E52E53E4F52EC092D602D092D702E092D802F092D9022091D2023091D3020C
:203FE0004091D4025091D502C501B4010E94F62269837A838B839C838092D2029092D3023A
:20400000A092D402B092D5022091090130910A0140910B0150910C01C501B4010E941725D4
:204020004B015C0120910501309106014091070150910801C701B6010E9417259B01AC01EF
:20404000C501B4010E94F7226B017C012091010130910201409103015091040169817A812A
:204060008B819C810E9417259B01AC01C701B6010E94F7220E94DA2350E040E077FD08C08B
:204080004091110150911201641775070CF4AB015093680340936703CA0161CFC12CD12C36
:2040A00046E9E42E43ECF42E8FCF109265031092640379CD892B09F001C1FF24F394F0921C
:2040C000B703F092B8031092B0031092AF031092B2031092B1038AEC91E00E94BB1480E3D8
:2040E00090E09093B0038093AF031092B2031092B10381ED91E00E94BB1486E690E09093B9
:20410000B0038093AF031092B2031092B10389ED91E00E94BB1422E0E22EE092B703E09272
:20412000B8031092B0031092AF030CE010E01093B2030093B10360917003709171038091B6
:204140007203909173030E94DA23CB010E948B14F092B703F092B8038DED91E00E94BB14D2
:20416000E092B703E092B80385E590E09093B0038093AF031093B2030093B103A091670337
:20418000B091680324E630E00E94DA252091110130911201032E000C440B550B0E949322DE
:2041A000C9010E948B14F092B703F092B8038FED91E00E94BB14F092B703F092B803109202
:2041C000B0031092AF033092B2032092B10381EE91E00E94BB1460910D0170910E0180918A
:2041E0000F01909110010E94DA23CB010E948B148DED91E00E94BB148AE490E09093B003C1
:204200008093AF033092B2032092B10386EE91E00E94BB1480916603882309F44CC083E60F
:2042200091E00E94BB1460910D0170910E0180910F01909110010E94DA239B01A5EEBFEFBE
:204240000E94D225A30192010E94932289019A01015C1F4F2F4F3F4FF12CE12C21E030E000
:20426000A801B70183EA93E00E94E00823E0E20EF11C31E8E316F10489F700916403109153
:2042800065039FE7E92EF12C0150110917FF02C00FE710E0F801EC51FD4F408150E021E05F
:2042A00030E0B70183EA93E00E94E00841E0E41AF10850F7DBCC86E691E0B3CF81E08093F3
:2042C000B7038093B8031092B0031092AF031092B2031092B1038CEE91E00E94BB14109202
:2042E000B0031092AF0380E190E09093B2038093B1038091E2029091E302892B09F0B6C029
:204300008AE691E00E94BB1485EF91E00E94BB146091090170910A0180910B0190910C01A3
:2043200042E050E00E94C2141092B0031092AF033092B2032092B1038091E2029091E30232
:20434000019709F096C08AE691E00E94BB148AEF91E00E94BB1460910501709106018091B9
:2043600007019091080142E050E00E94C2141092B0031092AF0388E290E09093B2038093D3
:20438000B1038091E2029091E302029709F074C08AE691E00E94BB148FEF91E00E94BB14F6
:2043A0006091010170910201809103019091040141E050E00E94C2141092B0031092AF0359
:2043C00084E390E09093B2038093B1038091E2029091E302039709F052C08AE691E00E9444
:2043E000BB1484E092E00E94BB146091DE027091DF028091E0029091E10241E050E00E940A
:20440000C2148091690390916A03019709F42ECCEE24E394F12C0AE010E022E130E050E069
:2044200040E06EE670E083EA93E00E949B0D1092B6031092B5031092B4031092B30380E7C1
:2044400090E09093B0038093AF03F092B203E092B1038DE092E00E94BB14F092B603E092F7
:20446000B503F092B403E092B30300CC82E092E049CF82E092E069CF82E092E08BCF82E0CF
:2044800092E0ADCF211162CA8091CD0281115ECA8091690390916A03009709F0CECC8091F0
:2044A0006B03811106C08091660391E089278093660380916603811149CA10926803109251
:2044C000670390E080E00E944F061092D6021092D7021092D8021092D90238CA8FE291E0D9
:2044E0009093A4038093A3038091C2039091C303009711F00C9497260895F999FECF92BD3C
:2045000081BDF89A992780B50895262FF999FECF1FBA92BD81BD20BD0FB6F894FA9AF99ACA
:204520000FBE01960895052E97FB1EF400940E94AA2257FD07D00E94C52207FC03D04EF4D5
:204540000C94AA2250954095309521953F4F4F4F5F4F089590958095709561957F4F8F4F62
:204560009F4F08950E94E722A59F900DB49F900DA49F800D911D11240895B7FF0C94B222BA
:204580000E94B222821B930B0895A1E21A2EAA1BBB1BFD010DC0AA1FBB1FEE1FFF1FA21715
:2045A000B307E407F50720F0A21BB30BE40BF50B661F771F881F991F1A9469F7609570955E
:2045C000809590959B01AC01BD01CF010895A29FB001B39FC001A39F700D811D1124911DE8
:2045E000B29F700D811D1124911D08955058BB27AA270E940E230C9488240E947A2438F0ED
:204600000E94812420F039F49F3F19F426F40C9477240EF4E095E7FB0C947124E92F0E948E
:20462000992458F3BA17620773078407950720F079F4A6F50C94BB240EF4E0950B2EBA2F67
:20464000A02D0B01B90190010C01CA01A0011124FF27591B99F0593F50F4503E68F11A1672
:20466000F040A22F232F342F4427585FF3CF469537952795A795F0405395C9F77EF41F1682
:20468000BA0B620B730B840BBAF09150A1F0FF0FBB1F661F771F881FC2F70EC0BA0F621F44
:2046A000731F841F48F4879577956795B795F7959E3F08F0B0CF9395880F08F09927EE0FC5
:2046C0009795879508950E944D2408F481E008950E947C230C9488240E94812458F00E942A
:2046E0007A2440F029F45F3F29F00C94712451110C94BC240C9477240E94992468F3992350
:20470000B1F3552391F3951B550BBB27AA2762177307840738F09F5F5F4F220F331F441FFE
:20472000AA1FA9F335D00E2E3AF0E0E832D091505040E695001CCAF72BD0FE2F29D0660F80
:20474000771F881FBB1F261737074807AB07B0E809F0BB0B802DBF01FF2793585F4F3AF019
:204760009E3F510578F00C9471240C94BC245F3FE4F3983ED4F3869577956795B795F795DC
:204780009F5FC9F7880F911D9695879597F90895E1E0660F771F881FBB1F621773078407D7
:2047A000BA0720F0621B730B840BBA0BEE1F88F7E09508950E94E1236894B1110C94BC2457
:2047C00008950E94A12488F09F5798F0B92F9927B751B0F0E1F0660F771F881F991F1AF04A
:2047E000BA95C9F714C0B13091F00E94BB24B1E008950C94BB24672F782F8827B85F39F01A
:20480000B93FCCF3869577956795B395D9F73EF490958095709561957F4F8F4F9F4F089508
:20482000E89409C097FB3EF490958095709561957F4F8F4F9F4F9923A9F0F92F96E9BB27C2
:204840009395F695879577956795B795F111F8CFFAF4BB0F11F460FF1BC06F5F7F4F8F4FFB
:204860009F4F16C0882311F096E911C0772321F09EE8872F762F05C0662371F096E8862F0A
:2048800070E060E02AF09A95660F771F881FDAF7880F9695879597F90895990F0008550F9D
:2048A000AA0BE0E8FEEF16161706E807F907C0F012161306E407F50798F0621B730B840B6C
:2048C000950B39F40A2661F0232B242B252B21F408950A2609F4A140A6958FEF811D811DE8
:2048E000089597F99F6780E870E060E008959FEF80EC089500240A94161617061806090621
:20490000089500240A9412161306140605060895092E0394000C11F4882352F0BB0F40F46B
:20492000BF2B11F460FF04C06F5F7F4F8F4F9F4F089557FD9058440F551F59F05F3F71F015
:204940004795880F97FB991F61F09F3F79F087950895121613061406551FF2CF4695F1DF0E
:2049600008C0161617061806991FF1CF86957105610508940895E894BB2766277727CB010B
:2049800097F908950E944D2408F48FEF089516F00C9489250C94772468940C9471240E945E
:2049A000A124A8F39923C1F3AEF3DF93CF931F930F93FF92C92FDD2788232AF02197660FDF
:2049C000771F881FDAF720E030E040E85FEB9FE3883920F0803E38F021968F770E94F72296
:2049E000E8E6F0E004C00E94F722E5E9F0E00E9497258B01BE01EC01FB2E6F5771097595F3
:204A0000771F880B990B0E94122428E132E741E35FE30E942A25AF2D9801AE01FF900F9125
:204A20001F91CF91DF910E940E230C9488240E942A250C9488240E947A2438F00E948124EB
:204A400020F0952311F00C9471240C94772411240C94BC240E94992470F3959FC1F3950F1A
:204A600050E0551F629FF001729FBB27F00DB11D639FAA27F00DB11DAA1F649F6627B00D2E
:204A8000A11D661F829F2227B00DA11D621F739FB00DA11D621F839FA00D611D221F749FBE
:204AA0003327A00D611D231F849F600D211D822F762F6A2F11249F5750409AF0F1F08823A1
:204AC0004AF0EE0FFF1FBB1F661F771F881F91505040A9F79E3F510580F00C9471240C945C
:204AE000BC245F3FE4F3983ED4F3869577956795B795F795E7959F5FC1F7FE2B880F911D29
:204B00009695879597F908950E944D24880B990B08959F3F31F0915020F487957795679522
:204B2000B795880F911D9695879597F90895DF93CF931F930F93FF92EF92DF927B018C01BC
:204B4000689406C0DA2EEF010E942A25FE01E894A5912591359145915591A6F3EF010E9496
:204B60000E23FE019701A801DA9469F7DF90EF90FF900F911F91CF91DF91089597FB072EF5
:204B800016F4009407D077FD09D00E94E12507FC05D03EF4909581959F4F089570956195E0
:204BA0007F4F08950E94E722332312F48A1B9B0B0C94DC250E94E722B7FF0895821B930B5E
:204BC0000895AA1BBB1B51E107C0AA1FBB1FA617B70710F0A61BB70B881F991F5A95A9F715
:204BE00080959095BC01CD010895EE0FFF1F0590F491E02D09940F931F93CF93DF9382309A
:204C0000910510F482E090E0E091E503F091E60330E020E0B0E0A0E0309799F42115310585
:204C200009F44AC0281B390B24303105D8F58A819B816115710589F1FB0193838283FE01EC
:204C400011C0408151810281138148175907E0F04817590799F4109761F012960C93129716
:204C600013961C933296CF01DF91CF911F910F9108950093E5031093E603F4CF2115310551
:204C800051F04217530738F0A901DB019A01BD01DF01F801C1CFEF01F9CF9093E6038093D9
:204CA000E503CDCFFE01E20FF31F819391932250310939832883D7CF2091E3033091E4033E
:204CC000232B41F420911501309116013093E4032093E30320911301309114012115310568
:204CE00041F42DB73EB74091170150911801241B350BE091E303F091E403E217F307A0F4FE
:204D00002E1B3F0B2817390778F0AC014E5F5F4F2417350748F04E0F5F1F5093E4034093EA
:204D2000E303819391939FCFF0E0E0E09CCFCF93DF930097E9F0FC01329713821282A09188
:204D4000E503B091E603ED0130E020E01097A1F420813181820F931F2091E3033091E40332
:204D60002817390709F061C0F093E403E093E303DF91CF910895EA01CE17DF07E8F54A810C
:204D80005B819E0141155105B1F7E901FB83EA8349915991C40FD51FEC17FD0761F4808187
:204DA00091810296840F951FE90199838883828193819B838A83F0E0E0E012968D919C912C
:204DC00013970097B9F52D913C911197CD010296820F931F2091E3033091E403281739074A
:204DE00039F6309751F51092E6031092E503B093E403A093E303BCCFD383C2834081518166
:204E0000840F951FC817D90761F44E5F5F4F88819981480F591F518340838A819B81938316
:204E200082832115310509F0B0CFF093E603E093E5039ECFFD01DC01C0CF13821282D7CF1C
:204E400081E090E0F8940C942C27DC0101C06D9341505040E0F7089515E0C2E7D5E004C0B8
:204E6000FE010E94F5252196C337D107C9F7F894FFCF01000070418FC2F53C0000A04000C0
:204E8000006643E6000000E7038000000000004C101F1016149D0518100510F60F00000080
:204EA00000D50B0C0716148F0FE0089D057A0E520E6E0E620EE20E9D059B09C013500899DF
:204EC000089B0D7E0D060DA70C6E616E00696E66006F7666005349004E4F4E003E005844AB
:204EE0006553494700436F6E74726F6C2051756563652D540043757274613A204F4E2F4F81
:204F00004646004C6F6E67613A204D656E7500414C41524D410053656E736F7220646573A1
:204F2000636F6E65637461646F0052657669736172207465726D6973746F7200542E4163B6
:204F4000742E0051554543452D540050574D00430025004669783A004163656E3A004D45BB
:204F60004E5520504944004B703A20004B693A20004B643A20004F66667365743A2000455F
:024F800000002F
:00000001FF
